:020000040000FA
:040000006BEF00F0B2
:100008005382FACF4FF0FBCF50F0D9CF51F0DACF6F
:1000180052F0F2AC12EF00F014EF00F061EF00F0D4
:100028000E01C0AD1AEF00F01CEF00F032EF00F047
:10003800C8AD21EF00F023EF00F032EF00F002D856
:1000480030EF00F00500FA6E3B50FD6E3C50FE6E3E
:100058003D50FF6EFA50120061EF00F0C0AF37EF6D
:1000680000F039EF00F04FEF00F0C8AF3EEF00F0BE
:1000780040EF00F04FEF00F002D84DEF00F0050020
:10008800FA6E3850FD6E3950FE6E3A50FF6EFA50D7
:10009800120061EF00F0BDAB54EF00F056EF00F036
:1000A80061EF00F0C5AB5BEF00F05DEF00F061EFD2
:1000B80000F06BEC09F061EF00F052C0DAFF51C0BC
:1000C800D9FF50C0FBFF4FC0FAFF53921100E8EF71
:0200D80009F02D
:100F000000B61000000000A811005814004A140098
:100F10008214007414006614000000000000000039
:100F20000000000000FC13003A1300000000000065
:0B0F3000000000001214000000000090
:100F3C00010E2224D96EDA6A000EDA22000EDF6E60
:100F4C000E0198A5ACEF07F0AEEF07F0C2EF07F07B
:100F5C00010E2224D96EDA6A000EDA22DF8202D860
:100F6C00C2EF07F00500FA6E2C50FD6E2D50FE6E90
:100F7C002E50FF6EFA5012000E0198A3C8EF07F026
:100F8C00CAEF07F0DEEF07F0010E2224D96EDA6A01
:100F9C00000EDA22DF8402D8DEEF07F00500FA6ECD
:100FAC002950FD6E2A50FE6E2B50FF6EFA50120027
:100FBC00010E2224D96EDA6A000EDA22DF50D8B480
:100FCC00EAEF07F0ECEF07F0FBEF07F002D8F9EFD0
:100FDC0007F00500FA6E2650FD6E2750FE6E285065
:100FEC00FF6EFA501200FDEF07F0B2EC09F01200A0
:100FFC00000E826E000E836E000E846E000E856EE7
:10100C00000E866E876888688968FE0E8A6E060EEA
:10101C008B6E000E0F010C6F000E146F000E1C6F08
:10102C00000E216F000E296F000E0B6F000E136F58
:10103C00000E1B6F000E206F040E286F000E0A6F3F
:10104C00000E126F000E1A6F000E1F6F000E276F2E
:10105C000969116919691E69070E266F08691069FB
:10106C0018691D690F0E256F190E0E01886F040E7D
:10107C009F6F0B0EFA6F000E0F01076F000E066FBD
:10108C00000E056F000E0F6F000E0E6F000E0D6F31
:10109C00000E176F000E166F000E156F000E246FEA
:1010AC00000E236F000E226F12000E01C09F3C0E2B
:1010BC000001606F0F0E616F000E626F2CEC0AF076
:1010CC000E01C09D920E0001606F120E616F000E3A
:1010DC00626F25EC0AF0480E0E019A6F800E986F25
:1010EC00260E996F190E966F000E976FA00E0001C9
:1010FC00606F140E616F000E626F3AEC0AF0900E86
:10110C000001606F140E616F000E626F33EC0AF019
:10111C00980E0001606F140E616F000E626F41EC4F
:10112C000AF0000E1F6E000E246E000E236E080EC9
:10113C00416E000E226E000E216E000E206E0E010E
:10114C00C08F120086B0ADEF08F0B0EF08F0010EC2
:10115C00B1EF08F0000EFF0A4E6E86504E18FE0BD3
:10116C004E18866E640E2526640E1D26000E1E2259
:10117C00640E1926000E1A221B221C221DC047F0D9
:10118C001EC048F019C049F01AC04AF01BC04BF001
:10119C001CC04CF0255026EC09F01200426E415058
:1011AC00D8B4DBEF08F0DDEF08F0D5EF08F00E0156
:1011BC00C0BDE3EF08F0E5EF08F0E9EF08F042C03E
:1011CC0095FEFEEF08F0C09D110E2424D96EDA6A4C
:1011DC00000EDA2242C0DFFF242A070E2464F9EF46
:1011EC0008F0FBEF08F0FDEF08F0000E246E41064E
:1011FC00C08D1200F29A0E01C591F280000E000112
:10120C00606F000E616F000E626F1EEC0AF00E0133
:10121C00C593F282000E0001606F000E616F000E2C
:10122C00626F17EC0AF00E01C595F284000E0001F6
:10123C00606F000E616F000E626F10EC0AF012000E
:10124C004D6E030ED4EC08F04D50D4EC08F0475022
:10125C00D4EC08F04850D4EC08F0490E436E000E64
:10126C00446E040E456E85EC09F0FC0ED4EC08F0CF
:10127C00FEEC09F00009D8B446EF09F048EF09F08C
:10128C003EEF09F01200080E41604FEF09F051EFEC
:10129C0009F068EF09F0110E2324D96EDA6A000EFA
:1012AC00DA22DF500E01956F232A070E236461EFBB
:1012BC0009F063EF09F065EF09F0000E236E412A87
:1012CC006AEF09F00E01C09D12000E01C59B3E5045
:1012DC003F104010D8B475EF09F077EF09F084EFA8
:1012EC0009F002D884EF09F00500FA6E3E50FD6E4D
:1012FC003F50FE6E4050FF6EFA5012001200000E6E
:10130C00466E93EF09F046504324D96E000E4420EC
:10131C00DA6EDF50D4EC08F0462A4550465CD8A073
:10132C009AEF09F09CEF09F089EF09F012005F0EBB
:10133C00D36E000ED26E940ED56E9E0E0001606FB1
:10134C00140E616F000E626F09EC0AF00E01C59B62
:10135C00BD8B800ED46E1200090E2224D96EDA6A6F
:10136C00000EDA2294CEDFFF222A070E2264C1EF90
:10137C0009F0C3EF09F0C5EF09F0000E226E202A28
:10138C001200F3EC09F0500E0001606F110E616F4A
:10139C00000E626F09EC0AF0F28EF28CD4EF09F0B9
:1013AC006BEF00F0600E0E01D36F700ED46F000E59
:1013BC00D56F000ED76F000ED96F000ED66F000ED2
:1013CC00D86F120000EE01F0250EEE6AE806FDE182
:1013DC00539053920001C7EF09F000EC09F0D8ECE0
:1013EC0009F09DEC09F05BEC08F0FEEC07F0120044
:1013FC000E0199B304EF0AF007EF0AF0010E08EFA3
:10140C000AF0000E120060C03EF061C03FF062C0F6
:10141C0040F0120060C02FF061C030F062C031F0BB
:10142C00120060C032F061C033F062C034F01200C0
:10143C0060C035F061C036F062C037F0120060C099
:10144C003BF061C03CF062C03DF0120060C038F06F
:10145C0061C039F062C03AF0120060C029F061C07E
:10146C002AF062C02BF0120060C02CF061C02DF08D
:10147C0062C02EF0120060C026F061C027F062C07E
:10148C0028F012000E01989998891200B2EC09F01C
:06149C0012001200120014
:020000040020DA
:10000000FFFFFFFFFFFFFFFFFFFFFFFFFFFFFFFF00
:10001000FFFFFFFFFFFFFFFFFFFFFFFFFFFFFFFFF0
:10002000FFFFFFFFFFFFFFFFFFFFFFFFFFFFFFFFE0
:10003000FFFFFFFFFFFFFFFFFFFFFFFFFFFFFFFFD0
:10004000FFFFFFFFFFFFFFFFFFFFFFFFFFFFFFFFC0
:10005000FFFFFFFFFFFFFFFFFFFFFFFFFFFFFFFFB0
:10006000FFFFFFFFFFFFFFFFFFFFFFFFFFFFFFFFA0
:10007000FFFFFFFFFFFFFFFFFFFFFFFFFFFFFFFF90
:10008000FFFFFFFFFFFFFFFFFFFFFFFFFFFFFFFF80
:10009000FFFFFFFFFFFFFFFFFFFFFFFFFFFFFFFF70
:1000A000FFFFFFFFFFFFFFFFFFFFFFFFFFFFFFFF60
:1000B000FFFFFFFFFFFFFFFFFFFFFFFFFFFFFFFF50
:1000C000FFFFFFFFFFFFFFFFFFFFFFFFFFFFFFFF40
:1000D000FFFFFFFFFFFFFFFFFFFFFFFFFFFFFFFF30
:1000E000FFFFFFFFFFFFFFFFFFFFFFFFFFFFFFFF20
:1000F000FFFFFFFFFFFFFFFFFFFFFFFFFFFFFFFF10
:020000040030CA
:0C000000FFFFFFFF9FFFFFFFFFFFFFFF60
:00000001FF
