:020000040000FA
:0400000027EF00F0F6
:100008001382FACF0EF0FBCF0FF0F2AC0EEF00F038
:1000180010EF00F021EF00F00E01BDAB16EF00F07D
:1000280018EF00F021EF00F0C5AB1DEF00F01FEF57
:1000380000F021EF00F005EC08F00FC0FBFF0EC048
:0A004800FAFF1392110089EF08F08F
:100F0000003E1000000000000000000000DA1000A9
:100F100000000000000E826E000E836E000E846ED4
:100F2000000E856E000E866E8768886889688A68FC
:100F3000060E8B6E000E0F010C6F000E146F000E6C
:100F40001C6F000E216F000E296F000E0B6F000E3C
:100F5000136F000E1B6F000E206F040E286F000E23
:100F60000A6F000E126F000E1A6F000E1F6F000E38
:100F7000276F0969116919691E69070E266F0869CB
:100F8000106918691D690F0E256F040E0E019F6F01
:100F9000000E0F01076F000E066F000E056F000EAA
:100FA0000F6F000E0E6F000E0D6F000E176F000E0C
:100FB000166F000E156F000E246F000E236F000ECB
:100FC000226F1200F29A0E01C591F280000E106E8F
:100FD000000E116E000E126E82EC08F00E01C59329
:100FE000F282000E106E000E116E000E126E7BEC7F
:100FF00008F00E01C595F284000E106E000E116E01
:10100000000E126E74EC08F012000E01C59B0A501F
:101010000B100C10D8B40FEF08F011EF08F01EEF12
:1010200008F002D81EEF08F00500FA6E0A50FD6EB7
:101030000B50FE6E0C50FF6EFA5012001200C00EE4
:10104000D36E000ED26E940ED56E1C0E106E110E65
:10105000116E000E126E6DEC08F00E01C59BBD8B7B
:10106000800ED46E120086B038EF08F03BEF08F027
:10107000010E3CEF08F0000EFF0A0D6E86500D18B1
:10108000FE0B0D18866E120064EC08F0660E106EF2
:10109000100E116E000E126E6DEC08F0F28EF28CD6
:1010A00050EF08F027EF00F0600E0E01D36F700EC6
:1010B000D46F000ED56F000ED76F000ED96F000EE3
:1010C000D66F000ED86F1200E2EC07F054EC08F077
:1010D0001FEC08F08AEC07F0120010C00AF011C0F3
:1010E0000BF012C00CF0120010C001F011C002F0A1
:1010F00012C003F0120010C004F011C005F012C0BD
:1011000006F0120010C007F011C008F012C009F07C
:0E111000120013901392000144EF08F0120039
:020000040020DA
:10000000FFFFFFFFFFFFFFFFFFFFFFFFFFFFFFFF00
:10001000FFFFFFFFFFFFFFFFFFFFFFFFFFFFFFFFF0
:10002000FFFFFFFFFFFFFFFFFFFFFFFFFFFFFFFFE0
:10003000FFFFFFFFFFFFFFFFFFFFFFFFFFFFFFFFD0
:10004000FFFFFFFFFFFFFFFFFFFFFFFFFFFFFFFFC0
:10005000FFFFFFFFFFFFFFFFFFFFFFFFFFFFFFFFB0
:10006000FFFFFFFFFFFFFFFFFFFFFFFFFFFFFFFFA0
:10007000FFFFFFFFFFFFFFFFFFFFFFFFFFFFFFFF90
:10008000FFFFFFFFFFFFFFFFFFFFFFFFFFFFFFFF80
:10009000FFFFFFFFFFFFFFFFFFFFFFFFFFFFFFFF70
:1000A000FFFFFFFFFFFFFFFFFFFFFFFFFFFFFFFF60
:1000B000FFFFFFFFFFFFFFFFFFFFFFFFFFFFFFFF50
:1000C000FFFFFFFFFFFFFFFFFFFFFFFFFFFFFFFF40
:1000D000FFFFFFFFFFFFFFFFFFFFFFFFFFFFFFFF30
:1000E000FFFFFFFFFFFFFFFFFFFFFFFFFFFFFFFF20
:1000F000FFFFFFFFFFFFFFFFFFFFFFFFFFFFFFFF10
:020000040030CA
:0C000000FFFFFFFF9FFFFFFFFFFFFFFF60
:00000001FF
